:020000040800F2
:1000000000100020ED030008BB030008BD0300083A
:10001000BF030008C1030008C3030008000000007C
:10002000000000000000000000000000C503000800
:10003000C703000800000000C9030008CB03000844
:10004000090400080D040008110400081504000844
:10005000190400081D0400082104000825040008F4
:10006000290400082D0400083104000835040008A4
:10007000390400083D040008410400084504000854
:10008000490400084D040008510400085504000804
:10009000590400085D0400086104000865040008B4
:1000A000690400086D040008710400087504000864
:1000B000790400087D040008810400088504000814
:1000C000890400088D0400089104000895040008C4
:1000D000990400089D040008A1040008A504000874
:1000E000A9040008AD040008B1040008B504000824
:1000F000B9040008BD040008C1040008C5040008D4
:10010000C9040008CD040008D1040008D504000883
:10011000D9040008DD040008E1040008E504000833
:10012000E9040008ED040008F1040008F5040008E3
:1001300080B53E49086850F0010008603C4A1368E9
:100140003C48034013600B683B4803400B60086861
:1001500030F480200860106830F4FE0010605FF416
:100160001F003649086000F005F85FF00060344970
:10017000086001BD80B500F001F801BD82B000202B
:100180000190002000902949086850F480300860F0
:10019000086810F4003000900198401C019000980D
:1001A000002803D10198B0F5A06FF1D10868800351
:1001B00002D50120009001E0002000900098012865
:1001C00031D12048026852F01002026002689208A1
:1001D00092000260026852F0020202601448026853
:1001E000026002680260026852F480620260026883
:1001F00032F47C120260026852F4E81202600A686B
:1002000052F080720A600A689201FCD50168890880
:1002100089000160016851F002010160016811F07C
:100220000C010829FAD102B070470000001002400A
:10023000041002400000FFF8FFFFF6FE0810024025
:1002400008ED00E000200240F0B40022002200226D
:10025000002200220022CB7813F00F03CA78D206C6
:1002600001D58A7813430A78120620D00668002444
:100270001AE0CA78482A16D1A740076113E001277F
:1002800017FA04F50A882A40AA420CD1A2000F25C9
:100290009540AE4313FA02F232431600CA78282A78
:1002A000E7D1A7404761641C082CE8D306600A88A0
:1002B000B2F5807F26DB4668002420E0012714F198
:1002C000080517FA05F50A882A40AA4216D1A200A5
:1002D0000F259540AE4313FA02F232431600CA7856
:1002E000282A04D114F1080217FA02F24261CA78EE
:1002F000482A03D114F1080297400761641C082CB6
:10030000DCD34660F0BC704780B501217D2000F051
:1003100019F801BD80B54FF40050ADF8000003207E
:100320008DF8020010208DF8030069460148FFF7A0
:100330008BFF01BD0010014080B5FFF7E5FFFFF71F
:10034000E9FF01BDC9B2002904D005490A6810437C
:10035000086004E002490A6832EA00000860704759
:10036000181002400100481E0029FBD1704780B5DB
:10037000FFF7E2FF01BD80B5FFF7F9FF0448016810
:1003800091F4005101605FF42D00FFF7EBFFF5E7FA
:100390000C10014000F00DF8002801D0AFF30080F0
:1003A000AFF300800020AFF30080FFF7E4FF00F020
:1003B00002F80120704700F009B87047FEE7FEE739
:1003C000FEE7FEE7704770477047704707463846BC
:1003D00000F002F8FBE7000080B5AFF30080024AAE
:1003E00011001820ABBEFBE7260002000148804741
:1003F0000148004731010008FD030008AFF3008009
:10040000AFF30080FFF7C6FFFFF7FEBFFFF7FEBFA9
:10041000FFF7FEBFFFF7FEBFFFF7FEBFFFF7FEBF10
:10042000FFF7FEBFFFF7FEBFFFF7FEBFFFF7FEBF00
:10043000FFF7FEBFFFF7FEBFFFF7FEBFFFF7FEBFF0
:10044000FFF7FEBFFFF7FEBFFFF7FEBFFFF7FEBFE0
:10045000FFF7FEBFFFF7FEBFFFF7FEBFFFF7FEBFD0
:10046000FFF7FEBFFFF7FEBFFFF7FEBFFFF7FEBFC0
:10047000FFF7FEBFFFF7FEBFFFF7FEBFFFF7FEBFB0
:10048000FFF7FEBFFFF7FEBFFFF7FEBFFFF7FEBFA0
:10049000FFF7FEBFFFF7FEBFFFF7FEBFFFF7FEBF90
:1004A000FFF7FEBFFFF7FEBFFFF7FEBFFFF7FEBF80
:1004B000FFF7FEBFFFF7FEBFFFF7FEBFFFF7FEBF70
:1004C000FFF7FEBFFFF7FEBFFFF7FEBFFFF7FEBF60
:1004D000FFF7FEBFFFF7FEBFFFF7FEBFFFF7FEBF50
:1004E000FFF7FEBFFFF7FEBFFFF7FEBFFFF7FEBF40
:0804F000FFF7FEBFFFF7FEBF9E
:04000005080003FDEF
:00000001FF
